{
  "contractName": "Election",
  "abi": [
    {
      "constant": true,
      "inputs": [],
      "name": "candidatesCount",
      "outputs": [
        {
          "name": "",
          "type": "uint256"
        }
      ],
      "payable": false,
      "stateMutability": "view",
      "type": "function"
    },
    {
      "constant": true,
      "inputs": [
        {
          "name": "",
          "type": "uint256"
        }
      ],
      "name": "candidates",
      "outputs": [
        {
          "name": "id",
          "type": "uint256"
        },
        {
          "name": "name",
          "type": "string"
        },
        {
          "name": "voteCount",
          "type": "uint256"
        }
      ],
      "payable": false,
      "stateMutability": "view",
      "type": "function"
    },
    {
      "constant": true,
      "inputs": [],
      "name": "votingStarted",
      "outputs": [
        {
          "name": "",
          "type": "bool"
        }
      ],
      "payable": false,
      "stateMutability": "view",
      "type": "function"
    },
    {
      "constant": true,
      "inputs": [],
      "name": "electionName",
      "outputs": [
        {
          "name": "",
          "type": "string"
        }
      ],
      "payable": false,
      "stateMutability": "view",
      "type": "function"
    },
    {
      "constant": true,
      "inputs": [],
      "name": "owner",
      "outputs": [
        {
          "name": "",
          "type": "address"
        }
      ],
      "payable": false,
      "stateMutability": "view",
      "type": "function"
    },
    {
      "constant": true,
      "inputs": [],
      "name": "votingEnded",
      "outputs": [
        {
          "name": "",
          "type": "bool"
        }
      ],
      "payable": false,
      "stateMutability": "view",
      "type": "function"
    },
    {
      "constant": true,
      "inputs": [
        {
          "name": "",
          "type": "address"
        }
      ],
      "name": "voters",
      "outputs": [
        {
          "name": "",
          "type": "bool"
        }
      ],
      "payable": false,
      "stateMutability": "view",
      "type": "function"
    },
    {
      "inputs": [
        {
          "name": "_name",
          "type": "string"
        }
      ],
      "payable": false,
      "stateMutability": "nonpayable",
      "type": "constructor"
    },
    {
      "anonymous": false,
      "inputs": [
        {
          "indexed": true,
          "name": "_candidateId",
          "type": "uint256"
        }
      ],
      "name": "votedEvent",
      "type": "event"
    },
    {
      "constant": false,
      "inputs": [
        {
          "name": "name",
          "type": "string"
        }
      ],
      "name": "addCandidate",
      "outputs": [],
      "payable": false,
      "stateMutability": "nonpayable",
      "type": "function"
    },
    {
      "constant": false,
      "inputs": [
        {
          "name": "_candidateId",
          "type": "uint256"
        }
      ],
      "name": "vote",
      "outputs": [],
      "payable": false,
      "stateMutability": "nonpayable",
      "type": "function"
    },
    {
      "constant": false,
      "inputs": [],
      "name": "begin",
      "outputs": [],
      "payable": false,
      "stateMutability": "nonpayable",
      "type": "function"
    },
    {
      "constant": false,
      "inputs": [],
      "name": "end",
      "outputs": [],
      "payable": false,
      "stateMutability": "nonpayable",
      "type": "function"
    }
  ],
  "bytecode": "0x608060405234801561001057600080fd5b50604051610d09380380610d098339810180604052602081101561003357600080fd5b81019080805164010000000081111561004b57600080fd5b8281019050602081018481111561006157600080fd5b815185600182028301116401000000008211171561007e57600080fd5b5050929190505050336000806101000a81548173ffffffffffffffffffffffffffffffffffffffff021916908373ffffffffffffffffffffffffffffffffffffffff16021790555080600190805190602001906100dc9291906100e3565b5050610188565b828054600181600116156101000203166002900490600052602060002090601f016020900481019282601f1061012457805160ff1916838001178555610152565b82800160010185558215610152579182015b82811115610151578251825591602001919060010190610136565b5b50905061015f9190610163565b5090565b61018591905b80821115610181576000816000905550600101610169565b5090565b90565b610b72806101976000396000f3fe6080604052600436106100af576000357c0100000000000000000000000000000000000000000000000000000000900463ffffffff1680630121b93f146100b45780631bce6ff3146100ef5780632d35a8a2146101065780633477ee2e14610131578063462e91ec146101f357806383d948b7146102bb57806385e8e7a7146102ea5780638da5cb5b1461037a5780639d5a0529146103d1578063a3ec138d14610400578063efbe1c1c14610469575b600080fd5b3480156100c057600080fd5b506100ed600480360360208110156100d757600080fd5b8101908080359060200190929190505050610480565b005b3480156100fb57600080fd5b50610104610636565b005b34801561011257600080fd5b5061011b610709565b6040518082815260200191505060405180910390f35b34801561013d57600080fd5b5061016a6004803603602081101561015457600080fd5b810190808035906020019092919050505061070f565b6040518084815260200180602001838152602001828103825284818151815260200191508051906020019080838360005b838110156101b657808201518184015260208101905061019b565b50505050905090810190601f1680156101e35780820380516001836020036101000a031916815260200191505b5094505050505060405180910390f35b3480156101ff57600080fd5b506102b96004803603602081101561021657600080fd5b810190808035906020019064010000000081111561023357600080fd5b82018360208201111561024557600080fd5b8035906020019184600183028401116401000000008311171561026757600080fd5b91908080601f016020809104026020016040519081016040528093929190818152602001838380828437600081840152601f19601f8201169050808301925050505050505091929192905050506107d1565b005b3480156102c757600080fd5b506102d06108c5565b604051808215151515815260200191505060405180910390f35b3480156102f657600080fd5b506102ff6108d8565b6040518080602001828103825283818151815260200191508051906020019080838360005b8381101561033f578082015181840152602081019050610324565b50505050905090810190601f16801561036c5780820380516001836020036101000a031916815260200191505b509250505060405180910390f35b34801561038657600080fd5b5061038f610976565b604051808273ffffffffffffffffffffffffffffffffffffffff1673ffffffffffffffffffffffffffffffffffffffff16815260200191505060405180910390f35b3480156103dd57600080fd5b506103e661099b565b604051808215151515815260200191505060405180910390f35b34801561040c57600080fd5b5061044f6004803603602081101561042357600080fd5b81019080803573ffffffffffffffffffffffffffffffffffffffff1690602001909291905050506109ae565b604051808215151515815260200191505060405180910390f35b34801561047557600080fd5b5061047e6109ce565b005b600560003373ffffffffffffffffffffffffffffffffffffffff1673ffffffffffffffffffffffffffffffffffffffff16815260200190815260200160002060009054906101000a900460ff161515156104d957600080fd5b600360009054906101000a900460ff161515156104f557600080fd5b600360019054906101000a900460ff16151561051057600080fd5b6000809054906101000a900473ffffffffffffffffffffffffffffffffffffffff1673ffffffffffffffffffffffffffffffffffffffff163373ffffffffffffffffffffffffffffffffffffffff161415151561056c57600080fd5b60008111801561057e57506002548111155b151561058957600080fd5b6001600560003373ffffffffffffffffffffffffffffffffffffffff1673ffffffffffffffffffffffffffffffffffffffff16815260200190815260200160002060006101000a81548160ff02191690831515021790555060016004600083815260200190815260200160002060020160008282540192505081905550807ffff3c900d938d21d0990d786e819f29b8d05c1ef587b462b939609625b684b1660405160405180910390a250565b6000809054906101000a900473ffffffffffffffffffffffffffffffffffffffff1673ffffffffffffffffffffffffffffffffffffffff163373ffffffffffffffffffffffffffffffffffffffff1614151561069157600080fd5b6000809054906101000a900473ffffffffffffffffffffffffffffffffffffffff1673ffffffffffffffffffffffffffffffffffffffff163373ffffffffffffffffffffffffffffffffffffffff161415156106ec57600080fd5b6001600360016101000a81548160ff021916908315150217905550565b60025481565b6004602052806000526040600020600091509050806000015490806001018054600181600116156101000203166002900480601f0160208091040260200160405190810160405280929190818152602001828054600181600116156101000203166002900480156107c15780601f10610796576101008083540402835291602001916107c1565b820191906000526020600020905b8154815290600101906020018083116107a457829003601f168201915b5050505050908060020154905083565b6000809054906101000a900473ffffffffffffffffffffffffffffffffffffffff1673ffffffffffffffffffffffffffffffffffffffff163373ffffffffffffffffffffffffffffffffffffffff1614151561082c57600080fd5b600360019054906101000a900460ff1615151561084857600080fd5b600260008154809291906001019190505550606060405190810160405280600254815260200182815260200160008152506004600060025481526020019081526020016000206000820151816000015560208201518160010190805190602001906108b4929190610aa1565b506040820151816002015590505050565b600360019054906101000a900460ff1681565b60018054600181600116156101000203166002900480601f01602080910402602001604051908101604052809291908181526020018280546001816001161561010002031660029004801561096e5780601f106109435761010080835404028352916020019161096e565b820191906000526020600020905b81548152906001019060200180831161095157829003601f168201915b505050505081565b6000809054906101000a900473ffffffffffffffffffffffffffffffffffffffff1681565b600360009054906101000a900460ff1681565b60056020528060005260406000206000915054906101000a900460ff1681565b6000809054906101000a900473ffffffffffffffffffffffffffffffffffffffff1673ffffffffffffffffffffffffffffffffffffffff163373ffffffffffffffffffffffffffffffffffffffff16141515610a2957600080fd5b6000809054906101000a900473ffffffffffffffffffffffffffffffffffffffff1673ffffffffffffffffffffffffffffffffffffffff163373ffffffffffffffffffffffffffffffffffffffff16141515610a8457600080fd5b6001600360006101000a81548160ff021916908315150217905550565b828054600181600116156101000203166002900490600052602060002090601f016020900481019282601f10610ae257805160ff1916838001178555610b10565b82800160010185558215610b10579182015b82811115610b0f578251825591602001919060010190610af4565b5b509050610b1d9190610b21565b5090565b610b4391905b80821115610b3f576000816000905550600101610b27565b5090565b9056fea165627a7a7230582087ceac16d8cda9db1ffd01a73b0748dfddde7316e17b23d0144f5ea6c875ce9b0029",
  "source": "pragma solidity ^0.5.0;\r\n\r\n/*\r\nElection contract that allows the owner to issue voting rights\r\nto anybody and also end the election and announce results\r\n*/\r\ncontract Election {\r\n\r\n    struct Candidate {\r\n        uint id;\r\n        string name;\r\n        uint voteCount;\r\n    }\r\n\r\n    // struct Voter {\r\n    //     //bool authorized;\r\n    //     bool voted;\r\n    //     uint vote;\r\n    // }\r\n\r\n    address public owner;\r\n    string public electionName;\r\n    uint public candidatesCount;\r\n    bool public votingEnded;\r\n    bool public votingStarted;\r\n\r\n    // mapping(address => Voter) public voters;\r\n    //Candidate[] public candidates;\r\n    mapping(uint => Candidate) public candidates;\r\n\r\n    // Store accounts that have voted\r\n    mapping(address => bool) public voters;\r\n\r\n    modifier ownerOnly() {\r\n        require(msg.sender == owner);\r\n        _;\r\n    }\r\n\r\n    constructor(string memory _name) public {\r\n        owner = msg.sender;\r\n        electionName = _name;\r\n    }\r\n    // constructor () public {\r\n    //     owner = msg.sender;\r\n    // }\r\n\r\n    // voted event\r\n    event votedEvent (\r\n        uint indexed _candidateId\r\n    );\r\n\r\n    function addCandidate(string memory name) ownerOnly public {\r\n        require(!votingStarted);\r\n        candidatesCount ++;\r\n        candidates[candidatesCount] = Candidate(candidatesCount, name, 0);\r\n    }\r\n\r\n    // function authorize(address person) ownerOnly public {\r\n    //     voters[person].authorized = true;\r\n    // }\r\n\r\n    function vote(uint _candidateId) public {\r\n        //make sure voter is authorized and has not already voted\r\n        require(!voters[msg.sender]);\r\n        // require(!voters[msg.sender].voted);\r\n        //require(voters[msg.sender].authorized);\r\n        require(!votingEnded);\r\n        require(votingStarted);\r\n        require(!(msg.sender == owner));\r\n\r\n        // require a valid candidate\r\n        require(_candidateId > 0 && _candidateId <= candidatesCount);\r\n\r\n        //record vote\r\n        voters[msg.sender] = true;\r\n        // voters[msg.sender].vote = _candidateId;\r\n        // voters[msg.sender].voted = true;\r\n\r\n        //increase candidate vote count by 1\r\n        candidates[_candidateId].voteCount += 1;\r\n\r\n        // trigger voted event\r\n        emit votedEvent(_candidateId);\r\n    }\r\n\r\n    function begin() ownerOnly public {\r\n        //destroy the contract\r\n        require(msg.sender == owner);  // Only ballot creator can end the vote.\r\n        votingStarted = true;\r\n    }\r\n\r\n    function end() ownerOnly public {\r\n        //destroy the contract\r\n        require(msg.sender == owner);  // Only ballot creator can end the vote.\r\n        votingEnded = true;\r\n    }\r\n}",
  "sourcePath": "C:/Users/Pankaj/Documents/GitHub/reactadmin/contracts/Election.sol",
  "compiler": {
    "name": "solc",
    "version": "0.5.0+commit.1d4f565a.Emscripten.clang"
  },
  "schemaVersion": "3.0.6",
  "updatedAt": "2019-04-06T22:41:53.244Z",
  "devdoc": {
    "methods": {}
  },
  "userdoc": {
    "methods": {}
  }
}